:1000000019C033C032C031C030C02FC02EC02DC087
:1000100092C02BC02AC029C028C027C026C025C036
:1000200024C040C022C021C020C01FC01EC01DC0AF
:100030001CC01BC011241FBECFEFCDBFDFE3DEBF4E
:100040001FE3A0E0BFE3E2EEFDE002C005900D92E9
:10005000A230B107D9F72FE3A2E0BFE301C01D92A0
:10006000AB30B207E1F70CD1BAC6CACF88EC8093A7
:100070000104E0E1F4E08081886080838CE080937B
:10008000120484E0809311040895E0E0F6E084E532
:10009000828382E0868391E092878081836080837F
:1000A000908708951F920F920FB60F9211248F938D
:1000B0009F93EF93FF9380910606813019F0823071
:1000C00061F016C0E0E0F6E0808991898093053FF9
:1000D0009093063F82E086830EC0E0E0F6E08089E0
:1000E00091898093073F9093083F81E0868303C006
:1000F00081E08093060681E080930B06FF91EF91EB
:100100009F918F910F900FBE0F901F90189578942C
:10011000E0E0FAE081818361818387EE93E086A34A
:1001200097A384EF91E080A791A782858160828761
:1001300081E0808308951F920F920FB60F921124D1
:100140008F939F938091003F9091013F8093380A55
:100150009093390A8091023F8F5F843118F4809325
:10016000023F14C01092023F8091033F9091043FE0
:1001700001968093033F9093043F8091093F9091B3
:100180000A3F01968093093F90930A3F81E0809354
:100190000B0A9F918F910F900FBE0F901F90189593
:1001A000E0E4FAE087E1818380ED848788E6858753
:1001B00083E0808308958091080480FD0BC083E96B
:1001C00091E10197F1F700C000008091080480954B
:1001D0008170089580E00895E0E0F4E080E887838E
:1001E0002FEB37E299E0215030409040E1F700C01A
:1001F000000087832FEB37E289E0215030408040B8
:10020000E1F700C000000895CF93DF93D4DF882387
:1002100009F180E880930604DFDFC0EADFE087E8C9
:1002200093E10197F1F700C00000C5DF81110FC015
:100230008091073F9091083F892F992744E6489F76
:100240009001499F300D112424543D4F14C0219733
:1002500031F710C083E090E098D59C01293E93E0EF
:10026000390748F068EE73E083E090E09ED528EE11
:1002700033E001C002C0822F932FDF91CF91089508
:10028000CF93DF93CDB7DEB72E97CDBFDEBF88ED1E
:1002900084BFE0E6F0E0118282818160828380E0A9
:1002A00090E06BD5782E81E090E06FD56C0178946A
:1002B000DDDE2DDF75DFE9DEA7DF2C0121E0721224
:1002C00005C0E090073FF090083F06C00F2EF0E613
:1002D000EF2EFAEEFF2EF02D3FE784E89EE131503D
:1002E00080409040E1F700C0000000E61AEE19825D
:1002F0001A82A0E8AB83BFE3BC83E4EFF1E0312CCA
:10030000B12C612C22242394812C6894992492F896
:100310006894AA24A7F8C201A0E0B0E089879A8770
:10032000AB87BC87ED87FE8705C0722C03C0722C9B
:1003300001C0722C8091053F9091063F9801281BC7
:10034000390BC901992324F488279927821B930B21
:100350008D3291400CF488C02EDF81112DC0809128
:10036000053F9091063F8536910530F419821A8237
:10037000B0E8BB83EFE3EC838091053F9091063FAB
:100380008636910568F08091053F9091063F84384C
:10039000934030F419821A8220E42B833FE33C839C
:1003A0008091053F9091063F8438934028F0198250
:1003B0001A821B82BFE3BC83FEDE8130C9F58091C7
:1003C000053F9091063F8536910540F4EFE9E983BA
:1003D000FAEAFA832AEA2B833EE33C838091053FC5
:1003E0009091063F8636910568F08091053F909187
:1003F000063F8438934030F419821A82B0E8BB83F8
:10040000EEE3EC838091053F9091063F8438934062
:1004100040F026EA29833AEA3A838AE28B839EE314
:100420009C831092033F1092043F312CB12C622C1C
:10043000A1E07A1211C0B60180E090E019D32981C1
:100440003A814B815C81A7D313D4E3D26D877E8739
:100450006093003F7093013F1092093F10920A3F52
:100460000091053F1091063FB1E07B1211C08091D1
:10047000073F9091083F9701281B390BC901992329
:1004800024F488279927821B930BCF97A4F42FC0BD
:1004900071102DC08091073F9091083F9701281B54
:1004A000390BC901992324F488279927821B930BC0
:1004B00018161906E4F42091073F3091083F8FEF9A
:1004C00093E0B20146D4629FC001639F900D729F7A
:1004D000900D11248093003F9093013FE090073FDF
:1004E000F090083F60E080E090E054D4712C63DE2F
:1004F000882379F061100DC0B1100BC01092200A52
:100500001092210A1092033F1092043F622C322C69
:1005100027C0E1E0EB1508F52091033F3091043F3F
:10052000C601880F991F8C0D9D1D82179307A8F493
:1005300042DE811112C0611010C01092033F109270
:10054000043F622D80E090E025D4B60181E090E088
:100550002CD431DE312CB12C4CC0F1E0BF123BC0A9
:100560006091033F7091043F80E090E081D26D8301
:100570007E838F83988769857A858B859C8578D2E1
:1005800029813A814B815C81D2D120E030E048E47E
:1005900054E461D19B01AC016D817E818F8198858E
:1005A000F5D2181684F407DE811110C0611011C055
:1005B0001092033F1092043FFEDDFDDD811120C04B
:1005C000312CB12C93C0BB24B39405C0BB24B3948D
:1005D00002C0BB24B394EFDD81110BC021E0621295
:1005E00008C0D4011696AC92E6DD81110BC0612CD7
:1005F0007DC0E1DD882309F479C0611077C002C0B5
:10060000312CB12CBB2009F470C08091200A90914C
:10061000210A843F914048F08091033F9091043F2C
:1006200001968093033F9093043FE1E0BE1214C013
:100630006091033F7091043F80E090E019D22981DE
:100640003A814B815C81A7D2E4D16D877E87C090CF
:10065000033FD090043F2DC06091033F7091043F51
:1006600080E090E005D229813A814B815C8193D270
:100670006D837E838F8398872D853E85B90180E0C9
:1006800090E0F6D19B01AC016D817E818F819885D0
:10069000E2D020E030E040E05FE37DD2BAD16D8768
:1006A0007E878091033F9091043FC80ED91ED69457
:1006B000C7948D859E858093003F9093013FB394AE
:1006C0001092200A1092210A1092033F1092043FC8
:1006D0001092093F10920A3FD4011596AC926BDD3F
:1006E000811109C0622C722CA5C0612C64DD8823A5
:1006F00009F46DC002C0622C722C8091033F90916E
:10070000043F803D974008F462C0E1E06E125FC094
:100710002FC0F11007C02D853E852F5F3F4F2D87DD
:100720003E8705C08D859E8501978D879E87AD8507
:10073000BE85A093003FB093013F109719F0A41518
:10074000B50509F4F2248091073F9091083F892B69
:1007500081F080E090E0F6E0FA95F1F700C00196B4
:100760002091073F3091083F82179307A0F301C003
:10077000F12C21DD8111CDCFB1E07B1211C0B6018A
:1007800080E090E075D129813A814B815C8103D270
:1007900040D16D877E876093003F7093013F13C007
:1007A0002091073F3091083F8FEF93E0B201D1D203
:1007B000629FC001639F900D729F900D11248093E2
:1007C000003F9093013FE090073FF090083FE1E049
:1007D0007E1681F1311032C0D4011596AC92AACDAB
:1007E000B1E06B1202C0F401A682F1E07F12A2CD4B
:1007F00031109BCDE0DC81119ACD8091093F909121
:100800000A3F2D853E85245031098217930738F021
:100810001092093F10920A3FD4011596AC92809134
:10082000093F90910A3F089708F483CDF401A6820E
:10083000722C80CDF1E03F1629F0DACF21E03212A0
:1008400079CD04C031E0B312D3CFCACF81E0B81262
:1008500071CDC6CF5058BB27AA270E9442040C94E2
:100860008C050E947E0538F00E94850520F039F441
:100870009F3F19F426F40C947B050EF4E095E7FBFA
:100880000C947505E92F0E949D0558F3BA1762076D
:1008900073078407950720F079F4A6F50C94BF053B
:1008A0000EF4E0950B2EBA2FA02D0B01B90190018B
:1008B0000C01CA01A0011124FF27591B99F0593FCF
:1008C00050F4503E68F11A16F040A22F232F342F17
:1008D0004427585FF3CF469537952795A795F04065
:1008E0005395C9F77EF41F16BA0B620B730B840B7A
:1008F000BAF09150A1F0FF0FBB1F661F771F881F32
:10090000C2F70EC0BA0F621F731F841F48F4879589
:1009100077956795B795F7959E3F08F0B0CF93957B
:10092000880F08F09927EE0F9795879508950E94F4
:10093000AB040C948C050E94850558F00E947E053E
:1009400040F029F45F3F29F00C94750551110C9487
:10095000C0050C947B050E949D0568F39923B1F3B3
:10096000552391F3951B550BBB27AA2762177307D5
:10097000840738F09F5F5F4F220F331F441FAA1F69
:10098000A9F335D00E2E3AF0E0E832D09150504025
:10099000E695001CCAF72BD0FE2F29D0660F771FD3
:1009A000881FBB1F261737074807AB07B0E809F0B9
:1009B000BB0B802DBF01FF2793585F4F3AF09E3F3E
:1009C000510578F00C9475050C94C0055F3FE4F375
:1009D000983ED4F3869577956795B795F7959F5F81
:1009E000C9F7880F911D9695879597F90895E1E0CD
:1009F000660F771F881FBB1F621773078407BA072C
:100A000020F0621B730B840BBA0BEE1F88F7E09586
:100A100008950E94A50588F09F5798F0B92F99274F
:100A2000B751B0F0E1F0660F771F881F991F1AF0D9
:100A3000BA95C9F714C0B13091F00E94BF05B1E07A
:100A400008950C94BF05672F782F8827B85F39F079
:100A5000B93FCCF3869577956795B395D9F73EF472
:100A600090958095709561957F4F8F4F9F4F08951A
:100A7000E89409C097FB3EF4909580957095619538
:100A80007F4F8F4F9F4F9923A9F0F92F96E9BB27EE
:100A90009395F695879577956795B795F111F8CF6A
:100AA000FAF4BB0F11F460FF1BC06F5F7F4F8F4FD5
:100AB0009F4F16C0882311F096E911C0772321F0CB
:100AC0009EE8872F762F05C0662371F096E8862F63
:100AD00070E060E02AF09A95660F771F881FDAF7BA
:100AE000880F9695879597F9089597F99F6780E8FD
:100AF00070E060E008959FEF80EC089500240A9470
:100B00001616170618060906089500240A941216E8
:100B10001306140605060895092E0394000C11F41B
:100B2000882352F0BB0F40F4BF2B11F460FF04C0C8
:100B30006F5F7F4F8F4F9F4F089557FD9058440F21
:100B4000551F59F05F3F71F04795880F97FB991F2C
:100B500061F09F3F79F087950895121613061406E9
:100B6000551FF2CF4695F1DF08C016161706180676
:100B7000991FF1CF86957105610508940895E89451
:100B8000BB2766277727CB0197F908950E945C065B
:100B900008F48FEF08950E94DE050C948C050E94E6
:100BA0007E0538F00E94850520F0952311F00C9405
:100BB00075050C947B0511240C94C0050E949D05BD
:100BC00070F3959FC1F3950F50E0551F629FF001A0
:100BD000729FBB27F00DB11D639FAA27F00DB11DB9
:100BE000AA1F649F6627B00DA11D661F829F222742
:100BF000B00DA11D621F739FB00DA11D621F839FC9
:100C0000A00D611D221F749F3327A00D611D231F9E
:100C1000849F600D211D822F762F6A2F11249F57EC
:100C200050409AF0F1F088234AF0EE0FFF1FBB1FEF
:100C3000661F771F881F91505040A9F79E3F5105AE
:100C400080F00C9475050C94C0055F3FE4F3983E6A
:100C5000D4F3869577956795B795F795E7959F5F58
:100C6000C1F7FE2B880F911D9695879597F90895EA
:100C70000E94A505E8F09E37E8F09639B8F49E3852
:100C800048F4672F782F8827985FF9CF8695779556
:100C9000679593959539D0F3B62FB1706B0F711D91
:100CA000811D20F487957795679593950C94800620
:100CB0000C949B060C94C005990F0008550FAA0BC5
:100CC000E0E8FEEF16161706E807F907C0F012165F
:100CD0001306E407F50798F0621B730B840B950B62
:100CE00039F40A2661F0232B242B252B21F40895B7
:100CF0000A2609F4A140A6958FEF811D811D089554
:100D0000882371F4772321F09850872B762F07C022
:100D1000662311F499270DC09051862B70E060E096
:100D20002AF09A95660F771F881FDAF7880F969535
:100D3000879597F908959F3F31F0915020F487955A
:100D400077956795B795880F911D9695879597F933
:100D50000895AA1BBB1B51E107C0AA1FBB1FA61702
:100D6000B70710F0A61BB70B881F991F5A95A9F754
:100D700080959095BC01CD01089503D0808199277D
:100D80000895FC01E050FC4E08950E94C106808148
:100D900091810895262F0E94C1060080021619F045
:100DA0000E94DC060197019708950196272F0E9463
:100DB000CB060C94CA06262FAF93BF93E0E0F0E178
:100DC000328131FDFDCFDC01A050BC4E2C932DE9CA
:100DD00024BF23E020830196BF91AF910895F8943A
:020DE000FFCF43
:020DE200F4011A
:02000004008278
:090000000000020000F2070000FC
:00000001FF
