:1000000019C033C032C031C030C02FC02EC02DC087
:1000100092C02BC02AC029C028C027C026C025C036
:1000200024C040C022C021C020C01FC01EC01DC0AF
:100030001CC01BC011241FBECFEFCDBFDFE3DEBF4E
:100040001FE3A0E0BFE3E0EBFEE002C005900D92ED
:10005000A230B107D9F72FE3A2E0BFE301C01D92A0
:10006000AB30B207E1F719D121C7CACF88EC809332
:100070000104E0E1F4E08081886080838CE080937B
:10008000120484E0809311040895E0E0F6E084E532
:10009000828382E0868391E092878081836080837F
:1000A000908708951F920F920FB60F9211248F938D
:1000B0009F93EF93FF9380910606813019F0823071
:1000C00061F016C0E0E0F6E0808991898093053FF9
:1000D0009093063F82E086830EC0E0E0F6E08089E0
:1000E00091898093073F9093083F81E0868303C006
:1000F00081E08093060681E080930B06FF91EF91EB
:100100009F918F910F900FBE0F901F90189578942C
:10011000E0E0FAE081818361818387EE93E086A34A
:1001200097A384EF91E080A791A782858160828761
:1001300081E0808308951F920F920FB60F921124D1
:100140008F939F938091003F9091013F8093380A55
:100150009093390A8091023F8F5F843118F4809325
:10016000023F14C01092023F8091033F9091043FE0
:1001700001968093033F9093043F8091093F9091B3
:100180000A3F01968093093F90930A3F81E0809354
:100190000B0A9F918F910F900FBE0F901F90189593
:1001A000E0E4FAE087E1818380ED848788E6858753
:1001B00083E0808308958091080480FD0BC083E96B
:1001C00091E10197F1F700C000008091080480954B
:1001D0008170089580E00895E0E0F4E080E887838E
:1001E0002FEB37E299E0215030409040E1F700C01A
:1001F000000087832FEB37E289E0215030408040B8
:10020000E1F700C000000895CF93DF93D4DF882387
:1002100071F12AE230E58EEF90E0215030408040CD
:100220009040D9F7000080E880930604D5DFD4DF42
:10023000C0EADFE087E893E10197F1F700C0000032
:10024000BADF811111C0C8DFC7DF8091073F9091ED
:10025000083F892F992744E6489F9001499F300D18
:10026000112424543D4F14C0219721F710C083E07E
:1002700090E0F2D59C01293E93E0390748F068EE02
:1002800073E083E090E0F8D528EE33E001C002C0CF
:10029000822F932FDF91CF910895CF93DF93CDB726
:1002A000DEB72F97CDBFDEBF88ED84BFE0E6F0E07C
:1002B000118282818160828380E090E0C5D5D82E52
:1002C00081E090E0C9D5888799877894CFDE1FDFD9
:1002D00067DFDBDE99DF1C0121E0D21205C06090F0
:1002E000073F7090083F06C00F2EF0E66F2EFAEE23
:1002F0007F2EF02D3FE744E85EE131504040504012
:10030000E1F700C0000000E61AEE1D82812C80E8B3
:100310008E839FE39F83A4EFB1E0512CC12C412C2D
:10032000E12C6894FF24F2F86894992497F89101DD
:1003300040E050E02A873B874C875D87AE87BF87C8
:1003400008C0DD24D39405C0DD24D39402C0DD248D
:10035000D3948091053F9091063F9801281B390B5B
:10036000C901992324F488279927821B930B8D3286
:1003700091400CF48FC01FDF81112DC08091053F8B
:100380009091063F8536910530F41D82812C40E81E
:100390004E835FE35F838091053F9091063F8636F1
:1003A000910568F08091053F9091063F8438934015
:1003B00030F41D82812CB0E4BE83EFE3EF838091A3
:1003C000053F9091063F8438934028F01D82812C90
:1003D0001E822FE32F83EFDE8130F1F58091053F00
:1003E0009091063F8536910550F43FE93D830F2EED
:1003F000FAEA8F2EF02D4AEA4E835EE35F83809106
:10040000053F9091063F8636910568F08091053F43
:100410009091063F8438934030F41D82812CB0E8DF
:10042000BE83EEE3EF838091053F9091063F8438D1
:10043000934050F026EA2D830F2EFAEA8F2EF02DEE
:100440003AE23E834EE34F831092033F1092043F03
:10045000512CC12C4424439451E0D51213C0A885DB
:10046000B985BD0180E090E06AD32D81382D4E81A1
:100470005F81F8D364D434D36E877F876093003F65
:100480007093013F1092093F10920A3F0091053F7F
:100490001091063FB1E0DB1214C0511043C08091AF
:1004A000073F9091083F9301281B390BC9019923FD
:1004B00024F488279927821B930B88349105B4F480
:1004C00031C0D1102FC051102DC08091073F9091A5
:1004D000083F9301281B390BC901992324F488276D
:1004E0009927821B930B18161906E4F42091073FF5
:1004F0003091083F8FEF93E0B10192D4629FC00129
:10050000639F900D729F900D11248093003F9093F4
:10051000013F6090073F7090083F60E080E090E00E
:10052000A0D4D12C48DE882389F041100FC0C1101F
:100530000DC01092200A1092210A1092033F1092CF
:10054000043F44244394552453944BC0E1E0EC15FC
:1005500008F044C030DE811141C041103FC06091BD
:10056000033F7091043F80E090E0E9D269837A8391
:100570008B839C8328853985B90180E090E0DFD2A8
:1005800020E030E040EC5FE36DD39B01AC0169817A
:100590007A818B819C8161D318164CF461E080E0F4
:1005A00090E05FD46885798581E090E065D4209102
:1005B000033F3091043F88859985880F991F4885AE
:1005C0005985840F951F8217930740F41092033FBB
:1005D0001092043FF0DD512CC12C54C051E0C512E3
:1005E0003BC06091033F7091043F80E090E0A7D250
:1005F00069837A838B839C836A857B858C859D85C3
:100600009ED22D81382D4E815F81F8D120E030E0DF
:1006100048E454E487D19B01AC0169817A818B81E4
:100620009C811BD3181684F4C6DD811110C04110C3
:1006300011C01092033F1092043FBDDDBCDD81115B
:1006400028C0512CC12CAEC0CC24C39405C0CC24EE
:10065000C39402C0CC24C394AEDD811113C081E0E9
:10066000481210C0D70116969C926090073F709078
:10067000083F0091053F1091063F9DDD81110BC0A1
:10068000412C90C098DD882309F48CC041108AC0A9
:1006900002C0512CC12CCC2009F481C08091033FB1
:1006A0009091043F8436910508F47BC08091200A24
:1006B0009091210A843F914048F08091033F9091AE
:1006C000043F01968093033F9093043FE1E0CE12F4
:1006D00016C06091033F7091043F80E090E02FD2FC
:1006E0002D81382D4E815F81BDD2FAD16E877F87F3
:1006F0002091033F3091043F2887398732C06091B1
:10070000033F7091043F80E090E019D22D81382D95
:100710004E815F81A7D269837A838B839C834E85C8
:100720005F85BA0180E090E00AD29B01AC0169814B
:100730007A818B819C81F6D020E030E040E05FE35D
:1007400091D2CED16E877F878091033F9091043FF5
:10075000A885B9858A0F9B1FFC01F695E795E88768
:10076000F9872E853F852093003F3093013FC39446
:100770001092200A1092210A1092033F1092043F17
:100780001092093F10920A3FD70115969C9213DDF3
:1007900081110DC044244394DD24D394B2C0412C74
:1007A00001C0412C08DD882309F477C004C044242B
:1007B0004394DD24D3948091033F9091043F803D86
:1007C000974008F46AC0E1E04E1267C033C0B11030
:1007D00007C02E853F852F5F3F4F2E873F8706C07E
:1007E0004E855F85415051094E875F878E859F8575
:1007F0008093003F9093013F009719F08215930575
:1008000021F4BA24D70117969C928091073F9091CA
:10081000083F892B91F080E090E0F6E0FA95F1F73F
:1008200000C001962091073F3091083F821793073F
:10083000A0F303C0B12CAA24A394BDDC8111C7CFBF
:1008400091E0D91213C0A885B985BD0180E090E080
:1008500076D12D81382D4E815F8104D241D16E87B2
:100860007F876093003F7093013F13C02091073F43
:100870003091083F8FEF93E0B101D2D2629FC00167
:10088000639F900D729F900D11248093003F909371
:10089000013F6090073F7090083FB1E0DB1689F19F
:1008A000511033C0F701958254CDF1E04F1203C0CF
:1008B000D70116969C92B1E0DB124BCD511041CD81
:1008C0007ADC811141CD8091093F90910A3F2885C2
:1008D0003985245031098217930730F01092093F6F
:1008E00010920A3FF70195828091093F90910A3F4B
:1008F000089708F42CCDD70116969C92DD24D3944A
:1009000028CDB1E05B1629F0D9CFE1E05E1221CD10
:1009100004C0F1E0CF12D2CFC8CF21E0C21219CD6E
:10092000C4CF5058BB27AA270E94A9040C94F305F2
:100930000E94E50538F00E94EC0520F039F49F3F55
:1009400019F426F40C94E2050EF4E095E7FB0C9400
:10095000DC05E92F0E94040658F3BA1762077307F3
:100960008407950720F079F4A6F50C9426060EF47A
:10097000E0950B2EBA2FA02D0B01B90190010C01AF
:10098000CA01A0011124FF27591B99F0593F50F4C7
:10099000503E68F11A16F040A22F232F342F44271F
:1009A000585FF3CF469537952795A795F040539517
:1009B000C9F77EF41F16BA0B620B730B840BBAF0E7
:1009C0009150A1F0FF0FBB1F661F771F881FC2F752
:1009D0000EC0BA0F621F731F841F48F48795779566
:1009E0006795B795F7959E3F08F0B0CF9395880F20
:1009F00008F09927EE0F9795879508950E941205A4
:100A00000C94F3050E94EC0558F00E94E50540F0B7
:100A100029F45F3F29F00C94DC0551110C94270652
:100A20000C94E2050E94040668F39923B1F3552360
:100A300091F3951B550BBB27AA27621773078407F1
:100A400038F09F5F5F4F220F331F441FAA1FA9F387
:100A500035D00E2E3AF0E0E832D091505040E69575
:100A6000001CCAF72BD0FE2F29D0660F771F881FD6
:100A7000BB1F261737074807AB07B0E809F0BB0BC9
:100A8000802DBF01FF2793585F4F3AF09E3F5105DD
:100A900078F00C94DC050C9427065F3FE4F3983E55
:100AA000D4F3869577956795B795F7959F5FC9F7C6
:100AB000880F911D9695879597F90895E1E0660F47
:100AC000771F881FBB1F621773078407BA0720F0C0
:100AD000621B730B840BBA0BEE1F88F7E095089529
:100AE0000E940C0688F09F5798F0B92F9927B751AC
:100AF000B0F0E1F0660F771F881F991F1AF0BA95C2
:100B0000C9F714C0B13091F00E942606B1E00895F3
:100B10000C942606672F782F8827B85F39F0B93FE5
:100B2000CCF3869577956795B395D9F73EF4909574
:100B30008095709561957F4F8F4F9F4F0895E894F2
:100B400009C097FB3EF490958095709561957F4F15
:100B50008F4F9F4F9923A9F0F92F96E9BB279395C3
:100B6000F695879577956795B795F111F8CFFAF4D3
:100B7000BB0F11F460FF1BC06F5F7F4F8F4F9F4F04
:100B800016C0882311F096E911C0772321F09EE862
:100B9000872F762F05C0662371F096E8862F70E0C8
:100BA00060E02AF09A95660F771F881FDAF7880FA2
:100BB0009695879597F9089597F99F6780E870E073
:100BC00060E008959FEF80EC089500240A941616C3
:100BD000170618060906089500240A94121613062B
:100BE000140605060895092E0394000C11F48823B9
:100BF00052F0BB0F40F4BF2B11F460FF04C06F5FD5
:100C00007F4F8F4F9F4F089557FD9058440F551FAA
:100C100059F05F3F71F04795880F97FB991F61F07E
:100C20009F3F79F087950895121613061406551FF5
:100C3000F2CF4695F1DF08C0161617061806991F61
:100C4000F1CF86957105610508940895E894BB2756
:100C500066277727CB0197F908950E94C30608F409
:100C60008FEF08950E9445060C94F3050E94E50558
:100C700038F00E94EC0520F0952311F00C94DC056F
:100C80000C94E20511240C9427060E94040670F3CC
:100C9000959FC1F3950F50E0551F629FF001729F21
:100CA000BB27F00DB11D639FAA27F00DB11DAA1F30
:100CB000649F6627B00DA11D661F829F2227B00D7D
:100CC000A11D621F739FB00DA11D621F839FA00D08
:100CD000611D221F749F3327A00D611D231F849F58
:100CE000600D211D822F762F6A2F11249F575040AF
:100CF0009AF0F1F088234AF0EE0FFF1FBB1F661F2A
:100D0000771F881F91505040A9F79E3F510580F0F2
:100D10000C94DC050C9427065F3FE4F3983ED4F373
:100D2000869577956795B795F795E7959F5FC1F796
:100D3000FE2B880F911D9695879597F908950E942F
:100D40000C06E8F09E37E8F09639B8F49E3848F47F
:100D5000672F782F8827985FF9CF869577956795C5
:100D600093959539D0F3B62FB1706B0F711D811D1E
:100D700020F487957795679593950C94E7060C94E6
:100D800002070C942706990F0008550FAA0BE0E8FC
:100D9000FEEF16161706E807F907C0F0121613063D
:100DA000E407F50798F0621B730B840B950B39F47D
:100DB0000A2661F0232B242B252B21F408950A26E3
:100DC00009F4A140A6958FEF811D811D0895882308
:100DD00071F4772321F09850872B762F07C0662374
:100DE00011F499270DC09051862B70E060E02AF035
:100DF0009A95660F771F881FDAF7880F9695879563
:100E000097F908959F3F31F0915020F48795779599
:100E10006795B795880F911D9695879597F90895D1
:100E2000AA1BBB1B51E107C0AA1FBB1FA617B70710
:100E300010F0A61BB70B881F991F5A95A9F780952C
:100E40009095BC01CD01089503D080819927089524
:100E5000FC01E050FC4E08950E942807808191819A
:100E60000895262F0E9428070080021619F00E947C
:100E700043070197019708950196272F0E94320793
:100E80000C943107262FAF93BF93E0E0F0E132815D
:100E900031FDFDCFDC01A050BC4E2C932DE924BFC9
:100EA00023E020830196BF91AF910895F894FFCF7E
:020EB000F4014B
:02000004008278
:090000000000020000F2070000FC
:00000001FF
